{
  "_format": "hh-sol-artifact-1",
  "contractName": "LibSilo",
  "sourceName": "contracts/libraries/Silo/LibSilo.sol",
  "abi": [
    {
      "inputs": [
        {
          "internalType": "uint8",
          "name": "bits",
          "type": "uint8"
        },
        {
          "internalType": "int256",
          "name": "value",
          "type": "int256"
        }
      ],
      "name": "SafeCastOverflowedIntDowncast",
      "type": "error"
    },
    {
      "inputs": [
        {
          "internalType": "uint8",
          "name": "bits",
          "type": "uint8"
        },
        {
          "internalType": "uint256",
          "name": "value",
          "type": "uint256"
        }
      ],
      "name": "SafeCastOverflowedUintDowncast",
      "type": "error"
    },
    {
      "inputs": [
        {
          "internalType": "uint256",
          "name": "value",
          "type": "uint256"
        }
      ],
      "name": "SafeCastOverflowedUintToInt",
      "type": "error"
    },
    {
      "anonymous": false,
      "inputs": [
        {
          "indexed": true,
          "internalType": "address",
          "name": "owner",
          "type": "address"
        },
        {
          "indexed": true,
          "internalType": "address",
          "name": "spender",
          "type": "address"
        },
        {
          "indexed": false,
          "internalType": "address",
          "name": "token",
          "type": "address"
        },
        {
          "indexed": false,
          "internalType": "uint256",
          "name": "amount",
          "type": "uint256"
        }
      ],
      "name": "DepositApproval",
      "type": "event"
    },
    {
      "anonymous": false,
      "inputs": [
        {
          "indexed": true,
          "internalType": "address",
          "name": "account",
          "type": "address"
        },
        {
          "indexed": false,
          "internalType": "int256",
          "name": "delta",
          "type": "int256"
        },
        {
          "indexed": false,
          "internalType": "enum GerminationSide",
          "name": "germ",
          "type": "uint8"
        }
      ],
      "name": "FarmerGerminatingStalkBalanceChanged",
      "type": "event"
    },
    {
      "anonymous": false,
      "inputs": [
        {
          "indexed": true,
          "internalType": "address",
          "name": "account",
          "type": "address"
        },
        {
          "indexed": true,
          "internalType": "address",
          "name": "token",
          "type": "address"
        },
        {
          "indexed": false,
          "internalType": "int96",
          "name": "stem",
          "type": "int96"
        },
        {
          "indexed": false,
          "internalType": "uint256",
          "name": "amount",
          "type": "uint256"
        },
        {
          "indexed": false,
          "internalType": "uint256",
          "name": "bdv",
          "type": "uint256"
        }
      ],
      "name": "RemoveDeposit",
      "type": "event"
    },
    {
      "anonymous": false,
      "inputs": [
        {
          "indexed": true,
          "internalType": "address",
          "name": "account",
          "type": "address"
        },
        {
          "indexed": true,
          "internalType": "address",
          "name": "token",
          "type": "address"
        },
        {
          "indexed": false,
          "internalType": "int96[]",
          "name": "stems",
          "type": "int96[]"
        },
        {
          "indexed": false,
          "internalType": "uint256[]",
          "name": "amounts",
          "type": "uint256[]"
        },
        {
          "indexed": false,
          "internalType": "uint256",
          "name": "amount",
          "type": "uint256"
        },
        {
          "indexed": false,
          "internalType": "uint256[]",
          "name": "bdvs",
          "type": "uint256[]"
        }
      ],
      "name": "RemoveDeposits",
      "type": "event"
    },
    {
      "anonymous": false,
      "inputs": [
        {
          "indexed": true,
          "internalType": "address",
          "name": "account",
          "type": "address"
        },
        {
          "indexed": false,
          "internalType": "int256",
          "name": "delta",
          "type": "int256"
        },
        {
          "indexed": false,
          "internalType": "int256",
          "name": "deltaRoots",
          "type": "int256"
        }
      ],
      "name": "StalkBalanceChanged",
      "type": "event"
    },
    {
      "anonymous": false,
      "inputs": [
        {
          "indexed": false,
          "internalType": "uint256",
          "name": "germinationSeason",
          "type": "uint256"
        },
        {
          "indexed": false,
          "internalType": "int256",
          "name": "deltaGerminatingStalk",
          "type": "int256"
        }
      ],
      "name": "TotalGerminatingStalkChanged",
      "type": "event"
    },
    {
      "inputs": [
        {
          "internalType": "address",
          "name": "owner",
          "type": "address"
        },
        {
          "internalType": "address",
          "name": "spender",
          "type": "address"
        },
        {
          "internalType": "address",
          "name": "token",
          "type": "address"
        }
      ],
      "name": "depositAllowance",
      "outputs": [
        {
          "internalType": "uint256",
          "name": "",
          "type": "uint256"
        }
      ],
      "stateMutability": "view",
      "type": "function"
    }
  ],
  "bytecode": "0x611e46610034600b8282823980515f1a607314602857634e487b7160e01b5f525f60045260245ffd5b305f52607381538281f3fe7300000000000000000000000000000000000000003014608060405260043610610060575f3560e01c8063100ca293146100645780632a6a8ef5146100855780636b29cbfe146100aa578063d670bde0146100c9578063d7787ee5146100e8575b5f80fd5b81801561006f575f80fd5b5061008361007e366004611982565b610107565b005b6100986100933660046119d6565b6102ed565b60405190815260200160405180910390f35b8180156100b5575f80fd5b506100836100c4366004611a16565b610323565b8180156100d4575f80fd5b506100836100e3366004611a47565b610418565b8180156100f3575f80fd5b50610083610102366004611b09565b61049f565b6001600160a01b0383165f9081526020819052604081208390601a018284600281111561013657610136611bd6565b600281111561014757610147611bd6565b815260208101919091526040015f90812080549091906101719084906001600160801b0316611bfe565b82546001600160801b039182166101009390930a92830291909202199091161790555060d481015463ffffffff168260028111156101b1576101b1611bd6565b6101b96105a2565b60028111156101ca576101ca611bd6565b036102095763ffffffff81165f90815260cb83016020526040812080546001600160801b03871692906101fe908490611c1e565b909155506102529050565b6001600160801b03841660cb83015f610223600185611c31565b63ffffffff1663ffffffff1681526020019081526020015f205f015f82825461024c9190611c1e565b90915550505b6001600160a01b0385165f80516020611dd183398151915261027c6001600160801b038716611c4e565b8560405161028b929190611c68565b60405180910390a27f3dd97efd4911891b98b28287922dd7351872382b548b549517e183ee6544c743816102c76001600160801b038716611c4e565b6040805163ffffffff909316835260208301919091520160405180910390a15050505050565b6001600160a01b039283165f90815260208181526040808320948616835260169094018152838220929094168152925290205490565b6001600160a01b0382165f9081526020819052604081206002015460d45463ffffffff918216911682828211156103625761035f8684846105ba565b90505b60d484015463ffffffff600160601b90910481169084161115806103ac57506001600160a01b0386165f90815260208590526040902060020154600160401b900463ffffffff1615155b80156103c457508163ffffffff168363ffffffff1611155b156103d4576103d486848361079c565b6103de8686610b6f565b506001600160a01b03949094165f9081526020929092525060409020600201805463ffffffff191663ffffffff9093169290921790915550565b5f6104248585856102ed565b90505f19811461049857818110156104835760405162461bcd60e51b815260206004820152601c60248201527f53696c6f3a20696e73756666696369656e7420616c6c6f77616e63650000000060448201526064015b60405180910390fd5b6104988585856104938686611c1e565b610c39565b5050505050565b6001600160a01b0382165f90815260c86020908152604080832054918401510151600160481b90910465ffffffffffff1690156104fb576020830151604001515f906104eb9083610cb4565b90506104f98787835f610cc8565b505b60408084015101511561052d5760408084015101515f9061051c9083610cb4565b905061052b8787836001610cc8565b505b61057483602001516020015161056e85604001516020015161056e61056286895f015160400151610cb490919063ffffffff16565b88516020015190610e63565b90610e63565b8351602090810191909152835101511561059a5761059a8686855f015160200151610e6e565b505050505050565b5f6105ab611099565b6105b55750600190565b505f90565b5f805f6105c6856110b5565b90505f806105d488846110e4565b6001600160801b031691506001600160801b031691505f805f8411801561061a575061060b63ffffffff808a169060019061117316565b63ffffffff168963ffffffff16105b15610676575f8061062d8c8c888a61117e565b915091508592508193508198508b6001600160a01b03165f80516020611dd18339815191528461065c90611c4e565b8360405161066b929190611c68565b60405180910390a250505b82156106f7575f8061069f8c61069763ffffffff808f169060019061117316565b878a1561117e565b90925090506106ae8386610e63565b92506106ba8483610e63565b93506001600160a01b038c165f80516020611dd18339815191526106dd87611c4e565b836040516106ec929190611c68565b60405180910390a250505b801561078f576001600160a01b038a165f908152602087905260409020600101546107229082610e63565b6001600160a01b038b165f90815260208890526040902060018101919091555461074c9083610e63565b6001600160a01b038b165f818152602089815260409182902093909355805184815292830185905290915f80516020611df1833981519152910160405180910390a25b5050505050509392505050565b60d4545f9063ffffffff848116600160401b9092041611156108a5575f6107c161127b565b90505f5b815181101561085e576107f1868383815181106107e4576107e4611c98565b602002602001015161137d565b6001600160a01b0387165f9081526020859052604081208451602d909101919085908590811061082357610823611c98565b60200260200101516001600160a01b03166001600160a01b031681526020019081526020015f206001018190555080806001019150506107c5565b505060d48101546001600160a01b0385165f908152602083905260409020600201805467ffffffff000000001916600160201b9283900463ffffffff169092029190911790555b6001600160a01b0384165f90815260208290526040812054900361091f5760d48101546001600160a01b03949094165f9081526020919091526040902060020180546bffffffffffffffff000000001916600160601b90940463ffffffff16600160201b0263ffffffff60401b1916939093179092555050565b60d4810154600160801b900460ff1615610b135760d481015463ffffffff808516600160601b909204161115610a0b5760d4810180546001600160a01b0386165f90815260208490526040902060028101805463ffffffff60401b1916600160601b9384900463ffffffff908116600160401b02919091179091558154602c909201919091559154858316926109b9926001920416611c31565b63ffffffff1603610a0b578115610a0b576001600160a01b0384165f908152602082905260409020602c01546109ef9083611601565b6001600160a01b0385165f908152602083905260409020602c01555b60d481015463ffffffff600160601b82048116600160201b9092041603610b0e575f610a3561127b565b90505f5b8151811015610b0b5760d4830154600160201b900463ffffffff165f9081526101038401602052604081208351909190849084908110610a7b57610a7b611c98565b60200260200101516001600160a01b03166001600160a01b031681526020019081526020015f2054835f015f886001600160a01b03166001600160a01b031681526020019081526020015f20602c016001015f848481518110610ae057610ae0611c98565b6020908102919091018101516001600160a01b031682528101919091526040015f2055600101610a39565b50505b610b69565b6001600160a01b0384165f90815260208290526040902060020154600160401b900463ffffffff1615610b69576001600160a01b0384165f908152602082905260409020600201805463ffffffff60401b191690555b50505050565b5f80610b7a8361160c565b6001600160a01b038581165f908152602085815260408083209388168352601890930190522054909150600b81900b90600160601b90046001600160801b03168015610be95782600b0b82600b0b03610bd557505050505050565b610be986610be48486856116d0565b6116e4565b50506001600160a01b039384165f90815260209283526040808220949095168152601890930190915291902080546bffffffffffffffffffffffff19166001600160601b03909216919091179055565b6001600160a01b038481165f81815260208181526040808320888616808552601690910183528184209588168085529583528184208790558151958652918501869052805192949193927f57af359a90b4c2b3ac79e2bcbd856c43c584ce131ade6a61cfc33d519613de8f9281900390910190a35050505050565b5f610cbf8284611cac565b90505b92915050565b5f610cd2836117f5565b6001600160a01b0386165f908152602083905260408120601a0190846002811115610cff57610cff611bd6565b6002811115610d1057610d10611bd6565b815260208101919091526040015f9081208054909190610d3a9084906001600160801b0316611bfe565b92506101000a8154816001600160801b0302191690836001600160801b03160217905550610d67836117f5565b6001600160a01b0385165f908152602083905260408120601a0190846002811115610d9457610d94611bd6565b6002811115610da557610da5611bd6565b815260208101919091526040015f9081208054909190610dcf9084906001600160801b0316611cc3565b92506101000a8154816001600160801b0302191690836001600160801b03160217905550846001600160a01b03165f80516020611dd183398151915284610e1590611c4e565b84604051610e24929190611c68565b60405180910390a2836001600160a01b03165f80516020611dd18339815191528484604051610e54929190611c68565b60405180910390a25050505050565b5f610cbf8284611ce3565b6001600160a01b0383165f9081526020819052604081206001015481908314610ec85760c482015460c5830154610ec39160019161056e9190610ebd908490610eb7908a610cb4565b90611601565b9061182c565b610ee1565b6001600160a01b0385165f908152602083905260409020545b6001600160a01b0386165f90815260208490526040902060010154909150610f099084611601565b6001600160a01b0386165f908152602084905260409020600181019190915554610f339082611601565b6001600160a01b0386165f818152602085905260409020919091555f80516020611df1833981519152610f6585611c4e565b610f6e84611c4e565b6040805192835260208301919091520160405180910390a26001600160a01b0385165f9081526020839052604090208054602c90910154111561100b576001600160a01b0385165f9081526020839052604081208054602c90910154610fd391611601565b6001600160a01b0387165f9081526020859052604090208054602c9091015560ed8401549091506110049082611601565b60ed840155505b6001600160a01b0384165f908152602083905260409020600101546110309084610e63565b6001600160a01b0385165f90815260208490526040902060018101919091555461105a9082610e63565b6001600160a01b0385165f818152602085815260409182902093909355805186815292830184905290915f80516020611df18339815191529101610e54565b60d4545f9081906110af9063ffffffff166110b5565b91505090565b5f6110cb63ffffffff8084169060029061183716565b63ffffffff16156110dd576001610cc2565b5f92915050565b5f8080831561112e576001600160a01b0385165f90815260208281526040808320838052601a0190915280822054600183529120546001600160801b03918216945016915061116b565b6001600160a01b0385165f9081526020828152604080832060018452601a01909152808220548280529120546001600160801b0391821694501691505b509250929050565b5f610cbf8284611c31565b5f808061118b8686611842565b925083156111cb576001600160a01b0387165f90815260208281526040808320838052601a01909152812080546001600160801b03191690559150611204565b6001600160a01b0387165f908152602082815260408083206001808552601a90910190925290912080546001600160801b031916905591505b63ffffffff8087165f90815260cb8301602052604090205461122891879061160116565b63ffffffff8781165f90815260cb84016020526040902091825560019091015461125491859061160116565b63ffffffff9096165f90815260cb9091016020526040902060010194909455949293505050565b60c9546060905f90818167ffffffffffffffff81111561129d5761129d611a8f565b6040519080825280602002602001820160405280156112c6578160200160208202803683370190505b5093505f5b828110156113735760c984018054829081106112e9576112e9611c98565b5f91825260209091200154600160b81b900460ff161561136b5760c9840180548290811061131957611319611c98565b5f918252602090912001546001600160a01b0316858361133881611cf6565b94508151811061134a5761134a611c98565b60200260200101906001600160a01b031690816001600160a01b0316815250505b6001016112cb565b5080845250505090565b6001600160a01b038281165f818152602081815260408083209486168352602d850182528220600101549282528190526002830154919290918290600160401b900463ffffffff16156114ed57600282015463ffffffff600160401b82048116600160201b909204160361140b57506001600160a01b0384165f908152602d82016020526040902054611444565b506002810154600160201b900463ffffffff165f9081526101038301602090815260408083206001600160a01b03881684529091529020545b6001600160a01b038681165f9081526020858152604080832060020154600160401b900463ffffffff1683526101038701825280832093891683529290522054818111156114e7575f6114978383611c1e565b6001600160a01b0389165f908152602087905260409020602c015492935083929091506114e3906114dc906c0c9f2c9cd04674edea4000000090610ebd908590610cb4565b8790610e63565b9550505b5061152f565b506001600160a01b038581165f9081526020848152604080832060020154600160201b900463ffffffff16835261010386018252808320938816835292905220545b6001600160a01b0386165f9081526020849052604090206002015460d484015463ffffffff918216600160201b90910490911611156115f85760d483015463ffffffff600160201b90910481165f9081526101038501602090815260408083206001600160a01b038a16845290915281205490916115b09190849061160116565b6001600160a01b0388165f908152602086905260409020549091506115f4906115ed906c0c9f2c9cd04674edea4000000090610ebd908590610cb4565b8690610e63565b9450505b50505092915050565b5f610cbf8284611c1e565b6001600160a01b0381165f90815260c86020526040812054819061169b906116619061164490600160781b900463ffffffff166118b9565b60d48401546116589063ffffffff166118b9565b600b0b906118cb565b6001600160a01b0385165f90815260c88401602052604090205461169290600160201b900464ffffffffff166118b9565b600b0b906118d6565b6001600160a01b0384165f90815260c8830160205260409020546116c99190600160981b9004600b0b611d0e565b9392505050565b5f6116dc8484846118e1565b949350505050565b60c5545f9081908103611707576117008364e8d4a51000610cb4565b9050611723565b60c482015460c58301546117209190610ebd9086610cb4565b90505b60c48201546117329084610e63565b60c48301556001600160a01b0384165f9081526020839052604090206001015461175c9084610e63565b6001600160a01b0385165f9081526020849052604090206001015560c58201546117869082610e63565b60c58301556001600160a01b0384165f908152602083905260409020546117ad9082610e63565b6001600160a01b0385165f818152602085815260409182902093909355805186815292830184905290915f80516020611df1833981519152910160405180910390a250505050565b5f6001600160801b03821115611828576040516306dfcc6560e41b8152608060048201526024810183905260440161047a565b5090565b5f610cbf8284611d4f565b5f610cbf8284611d62565b63ffffffff82165f90815260cb6020526040812054819083036118805763ffffffff84165f90815260cb8201602052604090206001015491506118b2565b63ffffffff8481165f90815260cb83016020526040902080546001909101546118af92610ebd918791610cb416565b91505b5092915050565b5f610cc26118c68361190c565b611938565b5f610cbf8284611d84565b5f610cbf8284611db1565b5f6116dc6001600160801b0383166118fd600b86900b876118cb565b6001600160601b031690610cb4565b5f6001600160ff1b038211156118285760405163123baf0360e11b81526004810183905260240161047a565b80600b81900b81146119675760405163327269a760e01b8152606060048201526024810183905260440161047a565b919050565b80356001600160a01b0381168114611967575f80fd5b5f805f60608486031215611994575f80fd5b61199d8461196c565b925060208401356001600160801b03811681146119b8575f80fd5b91506040840135600381106119cb575f80fd5b809150509250925092565b5f805f606084860312156119e8575f80fd5b6119f18461196c565b92506119ff6020850161196c565b9150611a0d6040850161196c565b90509250925092565b5f8060408385031215611a27575f80fd5b611a308361196c565b9150611a3e6020840161196c565b90509250929050565b5f805f8060808587031215611a5a575f80fd5b611a638561196c565b9350611a716020860161196c565b9250611a7f6040860161196c565b9396929550929360600135925050565b634e487b7160e01b5f52604160045260245ffd5b5f60608284031215611ab3575f80fd5b6040516060810181811067ffffffffffffffff82111715611ae257634e487b7160e01b5f52604160045260245ffd5b80604052508091508235815260208301356020820152604083013560408201525092915050565b5f805f808486036101a0811215611b1e575f80fd5b611b278661196c565b9450611b356020870161196c565b9350611b436040870161196c565b9250610140605f1982011215611b57575f80fd5b506040516080810181811067ffffffffffffffff82111715611b8757634e487b7160e01b5f52604160045260245ffd5b604052611b978760608801611aa3565b8152611ba68760c08801611aa3565b6020820152611bb9876101208801611aa3565b604082015261018086013560608201528091505092959194509250565b634e487b7160e01b5f52602160045260245ffd5b634e487b7160e01b5f52601160045260245ffd5b6001600160801b038281168282160390808211156118b2576118b2611bea565b81810381811115610cc257610cc2611bea565b63ffffffff8281168282160390808211156118b2576118b2611bea565b5f600160ff1b8201611c6257611c62611bea565b505f0390565b8281526040810160038310611c8b57634e487b7160e01b5f52602160045260245ffd5b8260208301529392505050565b634e487b7160e01b5f52603260045260245ffd5b8082028115828204841417610cc257610cc2611bea565b6001600160801b038181168382160190808211156118b2576118b2611bea565b80820180821115610cc257610cc2611bea565b5f60018201611d0757611d07611bea565b5060010190565b600b81810b9083900b0160016001605f1b03811360016001605f1b031982121715610cc257610cc2611bea565b634e487b7160e01b5f52601260045260245ffd5b5f82611d5d57611d5d611d3b565b500490565b5f63ffffffff80841680611d7857611d78611d3b565b92169190910692915050565b600b82810b9082900b0360016001605f1b0319811260016001605f1b0382131715610cc257610cc2611bea565b5f82600b0b82600b0b0280600b0b91508082146118b2576118b2611bea56fe9c0c70ad39ba6959d6008b9bc651f15ce23613cc1c5ebb4c6ffba0e53a1ea705b2d61db64b8ad7535308d2111c78934bc32baf9b7cd3a2e58cba25730003cd58a2646970667358221220cfc9d18ed7eb0438e36591385bbfe6e027f5fb4ceada5dcd0cbfa626c1a6968064736f6c63430008190033",
  "linkReferences": {},
  "deployedLinkReferences": {}
}